:1000000012C02CC02BC02AC029C028C028C026C0BE
:1000100025C024C023C022C021C020C01FC01EC0D4
:100020001DC01CC01BC011241FBECFE5D4E0DEBF25
:10003000CDBF10E0A0E6B0E0E4EEFAE002C005902B
:100040000D92A436B107D9F710E0A4E6B0E001C0E4
:100050001D92A337B107E1F7CDD442C5D1CF1F928E
:100060000F920FB60F9211248F939F93AF93BF936C
:1000700081E080936400809167008F5F80936700C8
:1000800081508330A8F080916B0090916C00A0911A
:100090006D00B0916E000196A11DB11D80936B00A3
:1000A00090936C00A0936D00B0936E001092670067
:1000B000BF91AF919F918F910F900FBE0F901F90A6
:1000C000189540916F00509170006091710070918F
:1000D0007200FB01E05AFF4F9081990F990FFA01CE
:1000E000E05AFF4F8081982B85B3807F892B85BB99
:1000F00084B39095807F982B94BB209169003091B8
:100100006A00121613060CF042C0CA0101969093C1
:10011000700080936F000497ACF52150304030930D
:100120006A002093690020916500309166002430B8
:100130003105ACF0CB010196909372008093710071
:10014000049724F0109272001092710021503040F8
:10015000309366002093650010926400089537FF85
:10016000FBCFCB010197909372008093710097FDB4
:1001700020C02F5F3F4F30936600209365001092A0
:10018000640008951092700010926F00C6CF211580
:10019000310549F2CA0101979093700080936F0076
:1001A00097FD0EC02F5F3F4F30936A002093690088
:1001B000BACF83E090E09093720080937100D9CF22
:1001C00083E090E09093700080936F00EBCF14BABF
:1001D0001FBC1DBC1CBC83B7836083BF8CE090E058
:1001E0009BBD8ABD8CE08EBD89B7806189BF77D405
:1001F00008958F929F92AF92BF92CF92DF92EF922B
:10020000FF920F931F938C015DD44B015C01680139
:10021000EE24D7FCE094FE2CB19B16C053D4681991
:1002200079098A099B09C616D706E806F906A0F7D8
:1002300081E01F910F91FF90EF90DF90CF90BF90E2
:10024000AF909F908F90089580E0F3CF8F929F9210
:10025000AF92BF92CF92DF92EF92FF920F931F93D4
:100260008C0130D44B015C016801EE24D7FCE09492
:10027000FE2CB19911C026D4681979098A099B0905
:10028000C616D706E806F90698F080916400882320
:1002900081F317DFB19BEFCF80E01F910F91FF90AB
:1002A000EF90DF90CF90BF90AF909F908F90089588
:1002B00081E0F3CFCF92DF92EF92FF920F931F93E3
:1002C000DF93CF930F92CDB7DEB7D82EFBD37B0150
:1002D0008C01B19B39C0F6D36E197F09800B910B4D
:1002E0006330710581059105A0F381E08983CC24F9
:1002F000C39488B391E0D9228E7F8D2988BBE2D345
:100300007B018C01B19911C0DDD36E197F09800B7F
:10031000910B633071058105910590F48091640023
:10032000882381F3CEDEB19BEFCF8C2D0F90CF9140
:10033000DF911F910F91FF90EF90DF90CF90089584
:10034000C980E1E0CE2AF1CF1982CC24D2CF6F92BE
:100350007F928F929F92AF92BF92CF92DF92EF9255
:10036000FF920F931F93DF93CF930F92CDB7DEB71A
:100370004C0183E087BB81E088BB8CE291E0019770
:10038000F1F7B99882E088BBBB24B3946624772444
:100390006401062C02C0D594C7940A94E2F792D364
:1003A0007B018C01B19BC2C08DD36E197F09800B7C
:1003B000910B6330710581059105A0F381E089837C
:1003C000AA24A39488B3DD24D394DC208E7F8D29C6
:1003D00088BB78D37B018C01B19912C073D36E199D
:1003E0007F09800B910B633071058105910508F041
:1003F00095C080916400882379F363DEB19BEECFD2
:10040000AA2009F090C0BD240894611C711CE8E08A
:100410006E16710409F0BCCF55D37B018C01B19BE2
:10042000B4C050D36E197F09800B910B63307105F6
:1004300081059105A0F3AA24A394DD24D39488B365
:10044000F1E0BF228E7FB82AB8BA3CD37B018C0181
:10045000B19912C037D36E197F09800B910B6330AD
:1004600071058105910508F064C0809164008823BE
:1004700079F327DEB19BEECF25D37B018C01B19BB5
:100480000EC020D36E197F09800B910B633071056C
:1004900081059105A0F3AA24A394DD24D394C09AE6
:1004A00011D37B018C01B19912C00CD36E197F0955
:1004B000800B910B633071058105910508F03EC0FA
:1004C00080916400882379F3FCDDB19BEECF87B384
:1004D0008C7F87BB83E088BBF5D27B018C01B09B0E
:1004E00030C0F0D26E197F09800B910B633071051B
:1004F00081059105A0F3DD24D3948D2D0F90CF912C
:10050000DF911F910F91FF90EF90DF90CF90BF9000
:10051000AF909F908F907F906F900895A98091E009
:10052000A92A09F470CFDD24DA94E7CF1982AA242E
:1005300049CFAA24A394DD24D3949ECFDD24D39461
:10054000C6CFC0D27B018C01B19B0DC0BBD26E194E
:100550007F09800B910B6B30710581059105A0F32C
:10056000DD24D394DA28AED27B018C0186B383706C
:10057000833019F2A7D26E197F09800B910B63307B
:1005800071058105910590F3B6CFDD2458CF6F92A8
:100590007F928F929F92AF92BF92CF92DF92EF9213
:1005A000FF920F931F93DF93CF930F92CDB7DEB7D8
:1005B000882E882309F4C0C085D27B018C01B19BB1
:1005C00012C080D26E197F09800B910B63337105C5
:1005D0008105910508F0B4C080916400882379F307
:1005E00070DDB199EECFAA24BB249924939466249C
:1005F000772468D27B018C01B19BBAC063D26E199B
:100600007F09800B910B6330710581059105A0F383
:1006100081E08983DD24D394C6B254D27B018C015E
:10062000B19912C04FD26E197F09800B910B6330C4
:1006300071058105910508F097C0809164008823B9
:1006400079F33FDDB19BEECFDD2009F072C02C2D98
:100650002170B594A794822F90E09695982F8827C3
:1006600097958795A82AB92A92260894611C711C2F
:10067000F9E06F16710409F0BCCF24D27B018C0124
:10068000B19B81C01FD26E197F09800B910B633023
:10069000710581059105A0F3DD24D39486B3292D3E
:1006A00030E090E0817090702817390711F0DD2458
:1006B000D39408D27B018C01B19912C003D26E1978
:1006C0007F09800B910B633071058105910508F05E
:1006D00052C080916400882379F3F3DCB19BEECFA4
:1006E000F1D17B018C01B19B0CC0ECD16E197F095B
:1006F000800B910B6330710581059105A0F3DD241A
:10070000D394E0D17B018C01B19911C0DBD16E197A
:100710007F09800B910B633071058105910570F5A0
:1007200080916400882381F3CCDCB19BEFCFDD2086
:1007300051F0882029F088248EEF90E008DE3CCF2D
:10074000AA24AA94BA2CC5010F90CF91DF911F91D2
:100750000F91FF90EF90DF90CF90BF90AF909F9060
:100760008F907F906F900895D980E1E0DE2A6CCF62
:100770001982DD2451CFDD24D394B2CFDD24D3946C
:10078000DD20B9F6E0CFDD2489CFDF92EF92FF9232
:100790000F931F93DF93CF9300D000D000D0CDB73D
:1007A000DEB781E0F4DE7C012FEF8F3F9207B9F1D5
:1007B00083FD1FC080E090E000E010E0DD2470E0E9
:1007C0001B830A839D838C83302F4B81582F6D812F
:1007D0002D2D80E090E026960FB6F894DEBF0FBE78
:1007E000CDBFCF91DF911F910F91FF90EF90DF90E0
:1007F000089557E0D52ED82281E0C9DE8C018FEF15
:100800000F3F180799F081E0C2DE2FEF8F3F92076C
:1008100089F0E4FC1F6FE5FED2CF9F6FD0CF71E06F
:10082000DD2400E010E080E090E0CACF71E080E0DD
:1008300090E0C6CF71E0C4CFAF92BF92CF92DF926B
:10084000EF92FF920F931F93CF93DF9387B3836051
:1008500087BBC09AC19820E030E048EC50E0CA0164
:100860000197F1F72F5F3F4F83E128383807B9F739
:100870008FEF90E06CDD81E08ADE5C0123D17B01AB
:100880008C01B19B0AC01ED16E197F09800B910BA0
:10089000695E734080409040A0F381E078DE81E0A3
:1008A00076DE6C0188EE90E052DD81E070DEEC01D6
:1008B00083E090E04CDD81E06ADE7C0187EE90E031
:1008C00046DD81E064DE8C0184EF90E040DD81E074
:1008D0005EDE30E04AEFA416B10409F031E020E01A
:1008E000CD2809F021E0322B20E0CA3FD10509F0E4
:1008F00021E0322B20E04AEFE416F10409F021E078
:10090000322B20E00A3F110509F021E0322B20E0D4
:100910008A3F910509F021E0832F822BDF91CF914F
:100920001F910F91FF90EF90DF90CF90BF90AF900D
:10093000089582DF4CDC0895DF93CF93CDB7DEB707
:100940002C970FB6F894DEBF0FBECDBF1EDF2F83EE
:10095000388749875A876B877C87DE011196FE01AD
:10096000379686E001900D928150E1F729818E81C2
:100970008823F1F545B330E0C901809590958370E7
:10098000907082959295907F9827807F98274F70DE
:10099000482B45BB84B32770307022953295307F49
:1009A0003227207F32278F70822B84BB8091690091
:1009B00090916A002A813B81820F931F90936A0075
:1009C0008093690080916500909166002C813D8143
:1009D000820F931F909366008093650080E02C96B1
:1009E0000FB6F894DEBF0FBECDBFCF91DF91089553
:1009F00081E0F5CFEF92FF920F931F93DF93CF9398
:100A0000CDB7DEB72C970FB6F894DEBF0FBECDBFC3
:100A100013DFDDDB7E010894E11CF11C8E01095F10
:100A20001F4FB19948C0B1DE2F83388749875A8755
:100A30006B877C87D701F80186E001900D92815089
:100A4000E1F729818E81882361F745B330E0C90140
:100A5000809590958370907082959295907F98275D
:100A6000807F98274F70482B45BB84B32770307028
:100A700022953295307F3227207F32278F70822B4C
:100A800084BB8091690090916A002A813B81820F2A
:100A9000931F90936A008093690080916500909104
:100AA00066002C813D81820F931F90936600809396
:100AB0006500B19BB8CF80916400882309F4B1CF61
:100AC00000DBAFCFF89420916B0030916C00409127
:100AD0006D0050916E007894B901CA01089508958F
:040AE000F894FFCFB8
:040AE4000001030208
:00000001FF
